{
  "_format": "hh-sol-artifact-1",
  "contractName": "JobPortal",
  "sourceName": "contracts/JobPortal.sol",
  "abi": [
    {
      "anonymous": false,
      "inputs": [
        {
          "indexed": false,
          "internalType": "uint256",
          "name": "projectId",
          "type": "uint256"
        },
        {
          "indexed": false,
          "internalType": "address",
          "name": "projectManager",
          "type": "address"
        },
        {
          "indexed": false,
          "internalType": "string",
          "name": "projectURI",
          "type": "string"
        }
      ],
      "name": "NewProject",
      "type": "event"
    },
    {
      "anonymous": false,
      "inputs": [
        {
          "indexed": false,
          "internalType": "uint256",
          "name": "projectId",
          "type": "uint256"
        },
        {
          "indexed": false,
          "internalType": "uint256",
          "name": "taskId",
          "type": "uint256"
        },
        {
          "indexed": false,
          "internalType": "address",
          "name": "freelancer",
          "type": "address"
        },
        {
          "indexed": false,
          "internalType": "uint256",
          "name": "bidAmount",
          "type": "uint256"
        },
        {
          "indexed": false,
          "internalType": "string",
          "name": "proposalURI",
          "type": "string"
        },
        {
          "indexed": false,
          "internalType": "bool",
          "name": "isWaiting",
          "type": "bool"
        },
        {
          "indexed": false,
          "internalType": "bool",
          "name": "isAccepted",
          "type": "bool"
        }
      ],
      "name": "NewProposal",
      "type": "event"
    },
    {
      "anonymous": false,
      "inputs": [
        {
          "indexed": false,
          "internalType": "uint256",
          "name": "projectId",
          "type": "uint256"
        },
        {
          "indexed": false,
          "internalType": "uint256",
          "name": "taskId",
          "type": "uint256"
        },
        {
          "indexed": false,
          "internalType": "uint256",
          "name": "stakedAmount",
          "type": "uint256"
        },
        {
          "indexed": false,
          "internalType": "string",
          "name": "taskURI",
          "type": "string"
        }
      ],
      "name": "NewTask",
      "type": "event"
    },
    {
      "anonymous": false,
      "inputs": [
        {
          "indexed": false,
          "internalType": "uint256",
          "name": "projectId",
          "type": "uint256"
        },
        {
          "indexed": false,
          "internalType": "uint256",
          "name": "taskId",
          "type": "uint256"
        },
        {
          "indexed": false,
          "internalType": "address",
          "name": "worker",
          "type": "address"
        },
        {
          "indexed": false,
          "internalType": "uint256",
          "name": "amount",
          "type": "uint256"
        }
      ],
      "name": "PaymentReleased",
      "type": "event"
    },
    {
      "anonymous": false,
      "inputs": [
        {
          "indexed": false,
          "internalType": "uint256",
          "name": "projectId",
          "type": "uint256"
        },
        {
          "indexed": false,
          "internalType": "uint256",
          "name": "taskId",
          "type": "uint256"
        }
      ],
      "name": "ReviewCompleted",
      "type": "event"
    },
    {
      "anonymous": false,
      "inputs": [
        {
          "indexed": false,
          "internalType": "uint256",
          "name": "projectId",
          "type": "uint256"
        },
        {
          "indexed": false,
          "internalType": "uint256",
          "name": "taskId",
          "type": "uint256"
        }
      ],
      "name": "TaskCompleted",
      "type": "event"
    },
    {
      "anonymous": false,
      "inputs": [
        {
          "indexed": false,
          "internalType": "uint256",
          "name": "projectId",
          "type": "uint256"
        },
        {
          "indexed": false,
          "internalType": "uint256",
          "name": "taskId",
          "type": "uint256"
        },
        {
          "indexed": false,
          "internalType": "address",
          "name": "worker",
          "type": "address"
        }
      ],
      "name": "WorkerSelected",
      "type": "event"
    },
    {
      "inputs": [
        {
          "internalType": "string",
          "name": "projectURI",
          "type": "string"
        }
      ],
      "name": "createProject",
      "outputs": [],
      "stateMutability": "nonpayable",
      "type": "function"
    },
    {
      "inputs": [],
      "name": "getBalance",
      "outputs": [
        {
          "internalType": "uint256",
          "name": "",
          "type": "uint256"
        }
      ],
      "stateMutability": "view",
      "type": "function"
    },
    {
      "inputs": [],
      "name": "getCurrentProjectId",
      "outputs": [
        {
          "internalType": "uint256",
          "name": "",
          "type": "uint256"
        }
      ],
      "stateMutability": "view",
      "type": "function"
    },
    {
      "inputs": [
        {
          "internalType": "uint256",
          "name": "projectId",
          "type": "uint256"
        }
      ],
      "name": "getTaskCountByProjectId",
      "outputs": [
        {
          "internalType": "uint256",
          "name": "",
          "type": "uint256"
        }
      ],
      "stateMutability": "view",
      "type": "function"
    },
    {
      "inputs": [
        {
          "internalType": "uint256",
          "name": "projectId",
          "type": "uint256"
        },
        {
          "internalType": "uint256",
          "name": "taskId",
          "type": "uint256"
        }
      ],
      "name": "getTaskData",
      "outputs": [
        {
          "internalType": "string",
          "name": "taskURI",
          "type": "string"
        },
        {
          "internalType": "uint256",
          "name": "Id",
          "type": "uint256"
        },
        {
          "internalType": "uint256",
          "name": "stakedAmount",
          "type": "uint256"
        },
        {
          "internalType": "uint256",
          "name": "proposalCount",
          "type": "uint256"
        },
        {
          "internalType": "address",
          "name": "worker",
          "type": "address"
        },
        {
          "internalType": "bool",
          "name": "isComplete",
          "type": "bool"
        },
        {
          "internalType": "bool",
          "name": "isReviewed",
          "type": "bool"
        },
        {
          "internalType": "bool",
          "name": "onGoing",
          "type": "bool"
        }
      ],
      "stateMutability": "view",
      "type": "function"
    },
    {
      "inputs": [
        {
          "internalType": "address",
          "name": "",
          "type": "address"
        }
      ],
      "name": "person",
      "outputs": [
        {
          "internalType": "string",
          "name": "personURI",
          "type": "string"
        },
        {
          "internalType": "string",
          "name": "name",
          "type": "string"
        },
        {
          "internalType": "string",
          "name": "wallet_address",
          "type": "string"
        },
        {
          "internalType": "string",
          "name": "description",
          "type": "string"
        },
        {
          "internalType": "uint256",
          "name": "rating",
          "type": "uint256"
        },
        {
          "internalType": "uint256",
          "name": "total_projects",
          "type": "uint256"
        },
        {
          "internalType": "uint256",
          "name": "total_tasks",
          "type": "uint256"
        }
      ],
      "stateMutability": "view",
      "type": "function"
    },
    {
      "inputs": [],
      "name": "projectCount",
      "outputs": [
        {
          "internalType": "uint256",
          "name": "",
          "type": "uint256"
        }
      ],
      "stateMutability": "view",
      "type": "function"
    },
    {
      "inputs": [
        {
          "internalType": "uint256",
          "name": "",
          "type": "uint256"
        }
      ],
      "name": "projects",
      "outputs": [
        {
          "internalType": "string",
          "name": "projectURI",
          "type": "string"
        },
        {
          "internalType": "uint256",
          "name": "projectId",
          "type": "uint256"
        },
        {
          "internalType": "address",
          "name": "projectManager",
          "type": "address"
        },
        {
          "internalType": "uint256",
          "name": "taskCount",
          "type": "uint256"
        }
      ],
      "stateMutability": "view",
      "type": "function"
    },
    {
      "stateMutability": "payable",
      "type": "receive"
    }
  ],
  "bytecode": "0x608060405234801561001057600080fd5b506110be806100206000396000f3fe60806040526004361061007f5760003560e01c806336fbad261161004e57806336fbad261461015c5780636708c24014610187578063b7e4b265146101cb578063c868ba9a1461020e57610086565b8063107046bd1461008b57806312065fe0146100cb57806315ee4df1146100f65780632463efca1461011f57610086565b3661008657005b600080fd5b34801561009757600080fd5b506100b260048036038101906100ad9190610861565b610239565b6040516100c2949392919061096e565b60405180910390f35b3480156100d757600080fd5b506100e0610311565b6040516100ed91906109ba565b60405180910390f35b34801561010257600080fd5b5061011d60048036038101906101189190610a3a565b610319565b005b34801561012b57600080fd5b5061014660048036038101906101419190610861565b610437565b60405161015391906109ba565b60405180910390f35b34801561016857600080fd5b50610171610456565b60405161017e91906109ba565b60405180910390f35b34801561019357600080fd5b506101ae60048036038101906101a99190610a87565b61045c565b6040516101c2989796959493929190610ae2565b60405180910390f35b3480156101d757600080fd5b506101f260048036038101906101ed9190610b93565b6105aa565b6040516102059796959493929190610bc0565b60405180910390f35b34801561021a57600080fd5b5061022361080c565b60405161023091906109ba565b60405180910390f35b600060205280600052604060002060009150905080600001805461025c90610c7a565b80601f016020809104026020016040519081016040528092919081815260200182805461028890610c7a565b80156102d55780601f106102aa576101008083540402835291602001916102d5565b820191906000526020600020905b8154815290600101906020018083116102b857829003601f168201915b5050505050908060010154908060020160009054906101000a900473ffffffffffffffffffffffffffffffffffffffff16908060040154905084565b600047905090565b81816000806001548152602001908152602001600020600001918261033f929190610e91565b5060015460008060015481526020019081526020016000206001018190555033600080600154815260200190815260200160002060020160006101000a81548173ffffffffffffffffffffffffffffffffffffffff021916908373ffffffffffffffffffffffffffffffffffffffff1602179055506000806000600154815260200190815260200160002060040181905550600160008154809291906103e490610f90565b91905055507fa974b2210ac17a1d9eb51946f0b5c8d97439a13bcb145bb58d3329f7d6da7e87600180546104189190610fd8565b33848460405161042b9493929190611048565b60405180910390a15050565b6000806000838152602001908152602001600020600401549050919050565b60015481565b60606000806000806000806000806000808c815260200190815260200160002060030160008b81526020019081526020016000209050806000018160010154826002015483600501548460040160009054906101000a900473ffffffffffffffffffffffffffffffffffffffff168560060160009054906101000a900460ff168660060160019054906101000a900460ff168760060160029054906101000a900460ff1687805461050c90610c7a565b80601f016020809104026020016040519081016040528092919081815260200182805461053890610c7a565b80156105855780601f1061055a57610100808354040283529160200191610585565b820191906000526020600020905b81548152906001019060200180831161056857829003601f168201915b5050505050975098509850985098509850985098509850509295985092959890939650565b60026020528060005260406000206000915090508060000180546105cd90610c7a565b80601f01602080910402602001604051908101604052809291908181526020018280546105f990610c7a565b80156106465780601f1061061b57610100808354040283529160200191610646565b820191906000526020600020905b81548152906001019060200180831161062957829003601f168201915b50505050509080600101805461065b90610c7a565b80601f016020809104026020016040519081016040528092919081815260200182805461068790610c7a565b80156106d45780601f106106a9576101008083540402835291602001916106d4565b820191906000526020600020905b8154815290600101906020018083116106b757829003601f168201915b5050505050908060020180546106e990610c7a565b80601f016020809104026020016040519081016040528092919081815260200182805461071590610c7a565b80156107625780601f1061073757610100808354040283529160200191610762565b820191906000526020600020905b81548152906001019060200180831161074557829003601f168201915b50505050509080600301805461077790610c7a565b80601f01602080910402602001604051908101604052809291908181526020018280546107a390610c7a565b80156107f05780601f106107c5576101008083540402835291602001916107f0565b820191906000526020600020905b8154815290600101906020018083116107d357829003601f168201915b5050505050908060040154908060050154908060060154905087565b60006001805461081c9190610fd8565b905090565b600080fd5b600080fd5b6000819050919050565b61083e8161082b565b811461084957600080fd5b50565b60008135905061085b81610835565b92915050565b60006020828403121561087757610876610821565b5b60006108858482850161084c565b91505092915050565b600081519050919050565b600082825260208201905092915050565b60005b838110156108c85780820151818401526020810190506108ad565b60008484015250505050565b6000601f19601f8301169050919050565b60006108f08261088e565b6108fa8185610899565b935061090a8185602086016108aa565b610913816108d4565b840191505092915050565b6109278161082b565b82525050565b600073ffffffffffffffffffffffffffffffffffffffff82169050919050565b60006109588261092d565b9050919050565b6109688161094d565b82525050565b6000608082019050818103600083015261098881876108e5565b9050610997602083018661091e565b6109a4604083018561095f565b6109b1606083018461091e565b95945050505050565b60006020820190506109cf600083018461091e565b92915050565b600080fd5b600080fd5b600080fd5b60008083601f8401126109fa576109f96109d5565b5b8235905067ffffffffffffffff811115610a1757610a166109da565b5b602083019150836001820283011115610a3357610a326109df565b5b9250929050565b60008060208385031215610a5157610a50610821565b5b600083013567ffffffffffffffff811115610a6f57610a6e610826565b5b610a7b858286016109e4565b92509250509250929050565b60008060408385031215610a9e57610a9d610821565b5b6000610aac8582860161084c565b9250506020610abd8582860161084c565b9150509250929050565b60008115159050919050565b610adc81610ac7565b82525050565b6000610100820190508181036000830152610afd818b6108e5565b9050610b0c602083018a61091e565b610b19604083018961091e565b610b26606083018861091e565b610b33608083018761095f565b610b4060a0830186610ad3565b610b4d60c0830185610ad3565b610b5a60e0830184610ad3565b9998505050505050505050565b610b708161094d565b8114610b7b57600080fd5b50565b600081359050610b8d81610b67565b92915050565b600060208284031215610ba957610ba8610821565b5b6000610bb784828501610b7e565b91505092915050565b600060e0820190508181036000830152610bda818a6108e5565b90508181036020830152610bee81896108e5565b90508181036040830152610c0281886108e5565b90508181036060830152610c1681876108e5565b9050610c25608083018661091e565b610c3260a083018561091e565b610c3f60c083018461091e565b98975050505050505050565b7f4e487b7100000000000000000000000000000000000000000000000000000000600052602260045260246000fd5b60006002820490506001821680610c9257607f821691505b602082108103610ca557610ca4610c4b565b5b50919050565b600082905092915050565b7f4e487b7100000000000000000000000000000000000000000000000000000000600052604160045260246000fd5b60008190508160005260206000209050919050565b60006020601f8301049050919050565b600082821b905092915050565b600060088302610d477fffffffffffffffffffffffffffffffffffffffffffffffffffffffffffffffff82610d0a565b610d518683610d0a565b95508019841693508086168417925050509392505050565b6000819050919050565b6000610d8e610d89610d848461082b565b610d69565b61082b565b9050919050565b6000819050919050565b610da883610d73565b610dbc610db482610d95565b848454610d17565b825550505050565b600090565b610dd1610dc4565b610ddc818484610d9f565b505050565b5b81811015610e0057610df5600082610dc9565b600181019050610de2565b5050565b601f821115610e4557610e1681610ce5565b610e1f84610cfa565b81016020851015610e2e578190505b610e42610e3a85610cfa565b830182610de1565b50505b505050565b600082821c905092915050565b6000610e6860001984600802610e4a565b1980831691505092915050565b6000610e818383610e57565b9150826002028217905092915050565b610e9b8383610cab565b67ffffffffffffffff811115610eb457610eb3610cb6565b5b610ebe8254610c7a565b610ec9828285610e04565b6000601f831160018114610ef85760008415610ee6578287013590505b610ef08582610e75565b865550610f58565b601f198416610f0686610ce5565b60005b82811015610f2e57848901358255600182019150602085019450602081019050610f09565b86831015610f4b5784890135610f47601f891682610e57565b8355505b6001600288020188555050505b50505050505050565b7f4e487b7100000000000000000000000000000000000000000000000000000000600052601160045260246000fd5b6000610f9b8261082b565b91507fffffffffffffffffffffffffffffffffffffffffffffffffffffffffffffffff8203610fcd57610fcc610f61565b5b600182019050919050565b6000610fe38261082b565b9150610fee8361082b565b925082820390508181111561100657611005610f61565b5b92915050565b82818337600083830152505050565b60006110278385610899565b935061103483858461100c565b61103d836108d4565b840190509392505050565b600060608201905061105d600083018761091e565b61106a602083018661095f565b818103604083015261107d81848661101b565b90509594505050505056fea26469706673582212209ba92901128f550d3f1e1cd4e3ca107624e3259f5c9cf879635029c562ac3c9f64736f6c63430008110033",
  "linkReferences": {},
  "deployedLinkReferences": {}
}